:03000000021E30AD
:0C1E3000787FE4F6D8FD758144021E6541
:061D7600041C0000000047
:1027140075FFDE75FFAD1226FA7F0A7E00122112C4
:052724001226DD80FB20
:03000B0002267753
:10267700C0E0C0D0758A30758CF8E51F2401F51FBE
:10268700E4351EF51EE4351DF51DE4351CF51CD09B
:04269700D0D0E0328D
:10277400758E08758810758901758A30758CF822F4
:0A27A10075A4FF75A6E075E3402261
:0700030075A88275B8022206
:1026FA001227741227A112000312215E1226017FEB
:0A270A00E87E037D007C000221D967
:0E27930020A60475A4FF22E4F5A47580FF22A1
:0F278400C2A5D2A6122793D2A72087FDC2A722F3
:10262900122784C2A5C2A61227938F807F017E003C
:102639007D007C001221D9D2A77F017E007D007C1C
:07264900001221D9C2A722F3
:1024D60014F91217ECFF122784D2A5C2A61227936D
:1024E6008F807F017E007D007C001221D9D2A77FDC
:0D24F600017E007D007C001221D9C2A722CA
:0527E6007F010226291D
:10215E007F341226297F057E007D007C001221D956
:10216E007F301226297F057E007D007C001221D94A
:10217E007F0C1226297F057E007D007C001221D95E
:10218E007F011226297F057E007D007C000221D969
:102503008F42ED24FE6010146013146016240370D0
:102513001AE54244808010E5424490800AE5424433
:0C252300888004E5424498FF122629221B
:10252F008B2F8A308931122503AB2FAA30A9318026
:10253F0013EF60161224DCAB2F0531E53170020565
:0B254F0030F9AA301217ECFF80E722E1
:0A27AB008B43122503AF430224DC28
:101FFC008B218A2289237F34122629752480E4F5CB
:10200C0025AF2405241226297F80122629E4F526E3
:10201C00AB210523E523AA22700205221224D60542
:10202C0026E526C3941040E80525E525C3942040F9
:10203C00D0752480E4F525AF2405241226297F8849
:10204C00122629E4F526AB210523E523AA227002EA
:10205C0005221224D60526E526C3941040E8052552
:10206C00E525C3942040D07F361226297F300226E6
:01207C00293A
:0727B500000000000000001D
:101D7C006040005E00000000000000000000000059
:101D8C000000000000000000000000000000000047
:101D9C000000000000000000000000000000000037
:101DAC000000000000000000000000000000000027
:041DBC000000000023
:101C9D0075A5F075900FE590640F60FA7F0A7E00D0
:101CAD007D007C001221D9E590640F60E9859038A4
:101CBD0075A50F7590F07F0A7E007D007C001221C6
:101CCD00D9AF90E5384F1218A01D19771D2D7B1D2A
:101CDD00417D1D557E1D14B71D28BB1D3CBD1D50DE
:101CED00BE1D0FD71D23DB1D37DD1D4BDE1D0AE786
:101CFD001D1EEB1D32ED1D46EE00001D58E4F5399D
:101D0D0080497539018044753902803F75390380EA
:101D1D003A75390480357539058030753906802B53
:101D2D0075390780267539088021753909801C752C
:101D3D00390A801775390B801275390C800D75397C
:101D4D000D800875390E800375390F75A5F07590E6
:101D5D000FE590B40FFB7F0A7E007D007C00122101
:091D6D00D9E590B40FEBAF392267
:10272900121C9D7E00EF640F7002C322EF640E4EEF
:0427390070EED32249
:101BAB00E4F53BC2041225AF9204300402D3221297
:101BBB0027E6E4F53A745E253AF582E43400F583C2
:101BCB00E4F0053AE53AB440ECE4F53AE53AC3946F
:101BDB004150DC121C9D8F3BE53BC3940040047FBE
:101BEB000180027F00E53AC3944050047E018002DD
:101BFB007E00EE5FFFE53BD3940950047E0180022B
:101C0B007E00EE5F6041E53B90276393FF745E259A
:101C1B003AF582E43400F583EFF0F53BE53AB41086
:101C2B0006AB3B7D028009E53AB42007AB3B7D0355
:101C3B00E4800EE53AAB3BB430057D04E48002E46E
:101C4B00FDFF1227AB8046E53BB40F047F018002FA
:101C5B007F00E53AD3940040047E0180027E00EEC3
:101C6B005F6002C322E53BB40E02D322E53BB40D09
:101C7B00047F0180027F00E53AD3940040047E018B
:101C8B0080027E00EE5F6003021BBA153A053A0232
:021C9B001BD755
:101A9F00E4F52878297C00FD7BFF7A2779B5FE7F56
:101AAF000212179AC2051225AF9205300502D322F2
:101ABF001227E6E4F52774292527F8E4F60527E52C
:101ACF0027B402F2E4F527E527C3940350E2121C72
:101ADF009D8F28E528C3940040047F0180027F007A
:101AEF00E527C3940250047E0180027E00EE5FFF63
:101AFF00E528D3940950047E0180027E00EE5F60DA
:101B0F001574292527F8A628E5282430FBE4FDFFC6
:101B1F001227AB021BA6E528B40F047F0180027FBA
:101B2F0000E527D3940040047E0180027E00EE5F23
:101B3F00603DE527B40105852937800AE52975F051
:101B4F000AA4252AF537E537D3944050047F018046
:101B5F00027F00E537C3940140047E0180027E00BE
:101B6F00EE5F6002C3221227BC4003021ABF22E5B8
:101B7F0028B40E02D322E528B40D047F0180027F22
:101B8F0000E527D3940040047E0180027E00EE5FC3
:0C1B9F006003021ABF15270527021AD6A2
:10193200E4F50A780B7C00FD7BFF7A2779B7FE7FFE
:101942000512179AC2061225AF9206300602D3225A
:101952001227E6E4F508740B2508F8E4F60508E515
:1019620008B405F2E4F508E508C3940650E2121C37
:101972009D8F0AE50AC3940040047F0180027F0024
:10198200E508C3940550047E0180027E00EE5FFFED
:10199200E50AD3940950047E0180027E00EE5F6066
:1019A20015740B2508F8A60AE50A2430FBE4FDFFAE
:1019B2001227AB021A9AE50AB40F047F0180027F54
:1019C20000E508D3940040047E0180027E00EE5FB1
:1019D2007003021A72E4F513F512F511F510F50908
:1019E200E509C39508503AE47F0AFEFDFCAB13AA51
:1019F20012A911A810121840C004A905AA06AB0723
:101A0200740B2509F8E6FFE4FCFDFED000EB2FF590
:101A120013EE3AF512ED39F511EC38F5100509809F
:101A2200BFE47FFF7EFFFDFCAB13AA12A911A81031
:011A3200D3E0
:101A330012188F50067F01C00780047F00C007E49F
:101A43007F32FEFDFCAB13AA12A911A810C3121812
:101A53008F40047E0180027E00D0E05E6008851224
:101A630035851336C3221227C2400302195222E5D9
:101A73000AB40E02D322E50AB40D047F0180027F6B
:101A830000E508D3940040047E0180027E00EE5FEF
:0C1A9300600302195215080508021969C9
:1025AF00C207121C9DEFD3940F50047E0180027E50
:1025BF0000EFC3940040047D0180027D00ED5E605A
:0925CF00E1BF0E02D207A20722AF
:0627BC001224000227298F
:0627C20012243702272952
:1021D9008F178E168D158C14851F1B851E1A851D4C
:1021E90019851C18C3E51F951BFFE51E951AFEE509
:1021F9001D9519FDE51C9518FCAB17AA16A915A87C
:0822090014C312188F70DD22CE
:10140E00B2C2CAFDD3CECFB70020477565737369DC
:10141E006E672067616D6500303ABDF8C8EBD3CEBC
:10142E00CFB700313AD6C2D0BB00B0B4CAFDD7D6C2
:10143E00BCFCD1A1D4F1C4A3CABD00303AB4B3B937
:10144E00D8C4A3CABD00313AC1B7CFB0C4A3CABD78
:10145E0000323ACBE6BBFAC4A3CABD00B0B4CAFD93
:10146E00D7D6BCFCCAE4C8EBCEBBCAFD00B0B446AE
:10147E0020BCFCC8B7C8CF00B0B44520BCFCB7B583
:10148E00BBD800B0B44420BCFCD6D8CAE400B0B47B
:10149E00CAFDD7D6BCFCCAE4C8EBCAB1BCE400C4D2
:1014AE00E3D7BCB1B8BAC3C1CBC2F0A3BF00B0B4CE
:1014BE004620BCFCBFAACABCD3CECFB700B0B4CABC
:1014CE00FDD7D6BCFCCAE4C8EBCAFDD7D6002A2A83
:1014DE00B9A7CFB2C4E3B2C2B6D4C1CB2A2A00B0E8
:1014EE00B44620BCFCBCCCD0F8D3CECFB7002A2A51
:1014FE002A2A2A2A2A2A2A2A2A2A2A2A2A2A00BAD8
:10150E00DCBFC9CFA7C4E3B2C2B4EDC1CB23230065
:10151E00B0B44620BCFCD6D8D0C2BFAACABC0023E9
:10152E0023232323232323232323232323232300A0
:10153E00B9A7CFB2C4E3B4B3B9D8B3C9B9A62A2AEE
:10154E0000B0B44620BCFCD4D9B4CECCF4D5BD008A
:10155E00BADCBFC9CFA7B4B3B9D8CAA7B0DC2323AE
:10156E0000CAE4C8EBCEBBCAFDB7C7B7A800313C72
:10157E003D20CAE4C8EBCEBBCAFD3C3D363400B0BC
:10158E00B44620BCFCD6D8CAE400CAE4C8EBCFD41B
:10159E00CABECAB1BCE4B7C7B7A80035303C3DCA15
:1015AE00B1BCE43C3D363535333500B7C7B3A3B8CF
:1015BE00D0D0BBC4DCD3D0D5E2B4CEBBFABBE1D71E
:1015CE00F6CCE1B8DFCAB5D1E9A3ACCCE1B8DFCA3D
:1015DE00B5D1E9BDD3BDFCD5E6CAB5B5C4B9A4B382
:1015EE00CCCFEEC4BFA3ACD3D0D2BBB6A8B5C4C4C7
:1015FE00D1B6C8A3ACB5ABCAC7CED2BFCBB7FED699
:10160E00D6D6D6C0A7C4D1A3ACCBB3C0FBB8DFD659
:10161E00CAC1BFB5D8CDEAB3C9C1CBB2C2CAFDD318
:10162E00CECFB7CFEEC4BFA3ACCCE1B8DFC1CBCE2B
:10163E00D2B5C44320D3EFD1D4BACDBBE3B1E0D3FE
:10164E00EFD1D4B1E0B3CCC4DCC1A6A3ACBCD3C93A
:10165E00EEC1CBB6D4B5A5C6ACBBFABACDC7B6C82B
:10166E00EBCABDCFB5CDB3B5C4C0EDBDE2A3ACB82A
:10167E00D0D0BBC2DEC0CFCAA6BACDD6FABDCCB5CD
:10168E00C4D6B8B5BCA3A1A3A120204D414445208A
:10169E00425920CDF5D0C4E5AB202032303233C4D0
:1016AE00EA3132D4C23233C8D520205468616E6B11
:0C16BE0020796F7520616761696E210062
:102601007BFF7A08790E1227517FE87E037D007CDB
:10261100001221D97BFF7A04790E1227517FE87EBF
:08262100037D007C000221D9B9
:10273D007BFF7A0C790E1227517FDC7E057D007CA4
:04274D00000221D98C
:101EE600E4F53CF53DF53CF53DE53D543F70031208
:101EF60027E674B9253DF5827415353CF583E493E0
:101F0600FB606FE53D543F641070047D028049E537
:101F16003D543F6420701474B9253DF5827415351F
:101F26003CF583E493FB7D03E4802DE53D543F645B
:101F360030701474B9253DF5827415353CF583E48B
:101F460093FB7D04E4801174B9253DF58274153543
:101F56003CF583E493FBE4FDFF1227AB7F647E0030
:101F66007D007C001221D9053DE53D7002053C024D
:031F76001EEF2239
:10255A007BFF7A00790E1227517FE87E037D007C8B
:10256A00001221D9121EE67BFF7A10790E1227512A
:0B257A007FE87E037D007C000221D979
:102751008B328A3389341227E6AB32AA33A9340289
:022761001FFC5B
:102211001227E67BFF7A14790E7D017F0212252FAA
:102221007BFF7A1479177D02E4FF12252F7BFF7A59
:102231001479267D03E4FF12252F7BFF7A1479316F
:072241007D04E4FF02252FDC
:102248001227E67BFF7A1479387D01E4FF12252FE7
:102258007BFF7A1479497D02E4FF12252F7BFF7AF0
:102268001479547D03E4FF12252F7BFF7A14795FDC
:072278007D04E4FF02252FA5
:10227F001227E67BFF7A14796A7D01E4FF12252F7E
:10228F007BFF7A14797B7D02E4FF12252F7BFF7A87
:10229F001479867D03E4FF12252F7BFF7A14799141
:0722AF007D04E4FF02252F6E
:1022B6001227E67BFF7A14799C7D01E4FF12252F15
:1022C6007BFF7A14797B7D02E4FF12252F7BFF7A50
:1022D6001479867D03E4FF12252F7BFF7A1479910A
:0722E6007D04E4FF02252F37
:102585001227E67BFF7A1479AD7D017F0112252F95
:102595007BFF7A1479BC7D02E4FF12252F7BFF7A3D
:0A25A5001479867D03E4FF02252F60
:1022ED001227E67BFF7A1479CB7D01E4FF12252FAF
:1022FD007BFF7A14797B7D02E4FF12252F7BFF7A19
:10230D001479867D03E4FF12252F7BFF7A147991D2
:07231D007D04E4FF02252FFF
:102324001227E67BFF7A1479DC7D01E4FF12252F66
:102334007BFF7A1479ED7D02E4FF12252F7BFF7A6F
:102344001479867D03E4FF12252F7BFF7A1479FC30
:072354007D04E4FF02252FC8
:10235B001227E67BFF7A15790D7D01E4FF12252FFD
:10236B007BFF7A15791E7D02E4FF12252F7BFF7A06
:10237B001479867D03E4FF12252F7BFF7A15792DC7
:07238B007D04E4FF02252F91
:102392001227E67BFF7A15793E7D01E4FF12252F95
:1023A2007BFF7A15794F7D02E4FF12252F7BFF7A9E
:1023B2001479867D03E4FF12252F7BFF7A1479FCC2
:0723C2007D04E4FF02252F5A
:1023C9001227E67BFF7A15795E7D01E4FF12252F3E
:1023D9007BFF7A15794F7D02E4FF12252F7BFF7A67
:1023E9001479867D03E4FF12252F7BFF7A15792D59
:0723F9007D04E4FF02252F23
:101F7900E4F53FF53E741E253EF582E43400F58311
:101F8900E4F0053EE53EB440EC1227E6E4F53EE513
:101F99003EC3953750531220D07C007D0A12180A8F
:101FA90074632DF58274273CF583E493FFF53F7440
:101FB9001E253EF582E43400F583EFF0E53EB410CA
:101FC90006AB3F7D028009E53EB42007AB3F7D03A8
:101FD900E4800EE53EAB3FB430057D04E48002E4C5
:101FE900FDFF1227AB053E80A6AE35AF36E4FCFDFA
:031FF9000221D9E9
:102400001227E67BFF7A15796F7D01E4FF12252FF5
:102410007BFF7A15797C7D02E4FF12252F7BFF7A02
:1024200015798D7D03E4FF12252F7BFF7A147986C1
:072430007D04E4FF02252FEB
:102437001227E67BFF7A1579987D01E4FF12252F95
:102447007BFF7A1579A97D02E4FF12252F7BFF7A9E
:1024570015798D7D03E4FF12252F7BFF7A1479868A
:072467007D04E4FF02252FB4
:1027630030313233343536373839414243444546C4
:012773000065
:101DC0006040001E00000000000000000000000055
:101DD0000000000000000000000000000000000003
:101DE00000000000000000000000000000000000F3
:101DF00000000000000000000000000000000000E3
:101E000000000000013700023500004A0014010202
:101E1000030405060708090A54000000C8019002DF
:0F1E200058032003E804B005780640070807D0F0
:10265000E4FF745E2FF582E43400F583E0FE741E1F
:102660002FF582E43400F583E0B506040FBF40E2A5
:07267000BF4002D322C32288
:0627C80012232402272960
:0627CE0012235B02272923
:0627D400122392022729E6
:0627DA001223C9022729A9
:10219E00E4F544121F791222ED121BABE433F54421
:1021AE00B40102FF22122650920030000D1227C8F1
:1021BE009201300102800B7F00221227CE92013055
:0B21CE000106754401AF44227F02228D
:10211D00E4FD121F791222ED121BABE433FDBD015C
:10212D0002FF22122650920330031F20020E1227A7
:10213D00C8E433FDBD0102FF227F02221227D4E441
:10214D0033FDBD0102FF227F00221227DAE433FFA7
:01215D00225F
:1025D800122211121C9DBF01047E0180027E00EFB1
:1025E80070047D0180027D00ED4EFEBF0E047D016A
:0925F80080027D00ED4E60DB2243
:10246E00122248121C9DBF01047E0180027E00EFE5
:10247E0070047D0180027D00ED4EFEBF02047D01E1
:10248E0080027D00ED4EFEBF0E047D0180027D00B8
:05249E00ED4E60CF22AD
:0627E000122585022729E5
:10207D00E4F540E4F54074142540F582E43400F5B0
:10208D0083E0F537E54025E02400F582E43400F5E2
:10209D0083E0F535A3E0F5361227E04025E540B4A1
:1020AD000903D38001C3920212211D8F41E54164C2
:1020BD0001600FE54160BC0540E540C3940A40B6A0
:0320CD0080B122BD
:1026BE0012227F121A9F40161222B6121932400EA3
:0F26CE001225851227E0400612219EBF01F5223A
:1024A3001220D07C007D0812180AED04F5371220A3
:1024B300D07C007D6512180AE53775F0C8A4AEF02C
:1024C3002DF536EE3CF5351227E0400612219EBF6E
:0324D30001CE2215
:0327EB0002255A6A
:10269B0012246EEF640E601AEF14600C14600E249B
:1026AB000270ED12207D80E81226BE80E31224A377
:0326BB0080DE229C
:1026DD0012273D1225D8EF640E6011EF1460080427
:0D26ED0070F112269B80EC1227EB80E72293
:10000E0000000000000000000000000000000000E2
:10001E0000000000000000000000000000000000D2
:10002E0000000000000000000000000000000000C2
:10003E0000000000000000D40000000000000000DE
:10004E00000000000000050100000000000000009C
:10005E000000000000001000800000000000000002
:10006E000000000000002000000000000000000062
:10007E0000000000000040008000000000000000B2
:10008E000000000000200000000000000000000042
:10009E00000003500050800100000000000000002E
:1000AE0000003C0400A00000000000000000000062
:1000BE00000040010B1500020000000000000000CF
:1000CE0000004000880000068000000000000000D4
:1000DE0000018000600000054000000000000000EC
:1000EE000002000000000003900001B63600000080
:1000FE000000000000000002400001FE360000007B
:10010E000000800000000002200001B63600000052
:10011E000000400000000002A000036FFF0000007E
:10012E00000020000000001D000000002C00000058
:10013E000000000000000005C000000028000000C4
:10014E000000100000000004000000003800000055
:10015E00000000000000000A8040000000000000C7
:10016E000000108000001F0847F80000000000008B
:10017E000000012000003D130C0E000000000000E6
:10018E0000000810000027A0180600000000000064
:10019E000000021000003F8038C700000000000081
:1001AE0000000403E00033903FC700000000000091
:1001BE0000000003B00033107F8700000000000035
:1001CE0000000824F00C0E00FF1F000000000000CD
:1001DE0000000007F0C20000FE1F81B3E6D8F00059
:1001EE0000000846710600083F1F01F667F9B000CF
:1001FE0000000003209800003FFF01B6C6D9800022
:10020E0000000840C02400043F1F037FFDBEFC0019
:10021E0000000000000000021E1E00000000000092
:10022E0000000800000000010E1C0000000000008D
:10023E00000008000000000087F000000000000031
:10024E0000000000000000000000000000000000A0
:10025E00000004000000000040000000000000004C
:10026E000000000000000000200000000000000060
:10027E00000002000000000000000000000000006E
:10028E00000001000000000010000000000000004F
:10029E000000008000000000000000C00000000010
:1002AE000000004000000002080000C00000000036
:1002BE0000000040000000000000000400000000EC
:1002CE0000000000000000018800018C000000000A
:1002DE0000000000000000002000018E0000000061
:1002EE000000004000000001000001B606DB6C00BB
:1002FE000000000000000000000003FF06DB6C00A1
:10030E00000000400000000100000000000000009E
:10031E0000000000000000000000000000000000CF
:10032E00000000200000000200000000000000009D
:10033E00000000100000000400000000000000009B
:10034E00000000000000000000000000000000009F
:10035E000000000800000010000000000000000077
:10036E00000000020000002000000000000000005D
:0D037E0000000000400001400000000000F1
:10038B000000000000000094A46840000000000082
:10039B000000000000000002190000000000000037
:1003AB000000000000000042001080000000000070
:1003BB000000000000000020000100000000000011
:1003CB000000000000000014000A00000000000004
:1003DB000000000000000000000000000000000012
:1003EB000000000000000000000000000000000002
:1003FB0000000000000000000000000000000000F2
:10040B0000000000000000000000000000000000E1
:10041B00000000000000000000000FF000000000D2
:10042B0000000000000000000001C003800000007D
:10043B000000000000000000000E00007000000033
:10044B000000000000000000003008000C0000005D
:10045B00000000000000000000C0101003000000AE
:10046B0000000000000000000100041000800000EC
:10047B00000000000000000006000030606000007B
:10048B0000000000000000000802100040100000F7
:10049B0000000000000000001004000040080000F5
:1004AB00000000000000000020000000010400001C
:1004BB0000000000000000004280000002C20000AB
:1004CB0000000000000000008040000004810000DC
:1004DB00000000000000000101010000030080008B
:1004EB0000000000000000010084000020008000DC
:1004FB00000000000000000218000000000840008F
:10050B0000000000000000040C200000041C200070
:10051B0000000000000000040040018002002000E9
:10052B000000000000000008108003C00100100054
:10053B000000000000000008000007E000001000B1
:10054B000000000000000010000007E000000800A1
:10055B000000000000000011020007E000408800CE
:10056B000000000000000000800077EE000080001B
:10057B0000000000000000212000FFFF0003C4006A
:10058B00000000000000002000003FFC0000040001
:10059B00000000000000002000001FF80000040015
:1005AB000000000000000000000007E00000000059
:1005BB00000000000000000A000187E180006000DD
:1005CB0000000000000000430003E7E7C00022002A
:1005DB0000000000000000420001E7E780008200FD
:1005EB000000000000000040000067E60000220051
:1005FB000000000000000040000807E010000200AF
:10060B000000000000000040001E07E07800020020
:10061B000000000000000040001F87E1F80002000E
:10062B0000000000000000400007C7E3E0000200EC
:10063B0000000000000000400003F7EFC0000200C4
:10064B00000000000000004000E0FFFF0700020078
:10065B00000000000000000000F83FFC1F0000003D
:10066B000000000000000020007E0FF07E00040060
:10067B000000000000000020001F87E1F8000400CC
:10068B0000000000000000200007C7E3E0000400AA
:10069B0000000000000000000003E7E7C0000000BE
:1006AB0000000000000000100200E7E70040080017
:1006BB000000000000000010000027E4000008000C
:1006CB000000000000000008000007E00000100020
:1006DB000000000000000008008007E0010010008F
:1006EB000000000000000004004001800200200018
:0D06FB0000000000000000040020000004CA
:1007080000200000000000000000020000000000BF
:10071800004000000000000000000100040000206C
:1007280000800000000000000000010001000080BF
:100738000080000000000000000000808000000031
:100748000100000000000000000000400000000060
:10075800020000000000000000000020000000006F
:10076800040000000000000000000010000000006D
:100778000800000000000000000000080000000061
:10078800100000000000000000000006000000004B
:1007980060000000000000000000000100080000E8
:1007A800800000000000000000000000C0000003FE
:1007B8000000000000000000000000003000000CF5
:1007C8000000000000000000000000000C000030E5
:1007D80000000000000000000000000001C00380CD
:1007E800000000000000000000000000001FF800EA
:1007F80000000000000000000000000000000000F1
:1008080000000000000000000000000000000000E0
:1008180000000000000000000000000000000007C9
:10082800FF000000000000000000000000001FFFA3
:10083800FFFFC00000000000000000000007FFFFED
:10084800FFFFFF000000000000000000007FFFFF26
:10085800FFFFFFF0000000000000000003FFFFFFA3
:10086800FFFFFFFE00000000000000000FFFFFFF79
:10087800FFFFFFFFC0000000000000003FFFFFFF78
:10088800FFFFFFFFF0000000000000007FFFFFFFF8
:10089800FFFFFFFFF80000000000003F003FFFFFE0
:1008A800FFFFFFFFFE000000000001FE00003FFF09
:1008B800FFFFFFFFFE000000000003FE000000FF36
:1008C800FFFFFFFFFF000000000003FE000000071D
:1008D800FFFFFFFFFF800000000007FE0000000090
:1008E8003FFFFFFFFF800000000007FE0000000040
:1008F80003FFFFFFFF800000000007FF000000006B
:10090800003FFFFFFF800000000003FF80000000A1
:100918000007FFFFFF800000000001FFC00000008B
:100928000000FFFFFF800000000000FFF000000053
:1009380000001FFFFF0000000000007FFC00000017
:10094800000003FFFF0000000000001FFE00000081
:10095800000000FFFE00000000000007FF8000000C
:100968000000001FFE00000000000001FFE0000082
:1009780000000007FC000000000000003FF000003D
:1009880000000003F8000000000000000FFC000059
:1009980000000003F00000000000000003FF00005A
:1009A800003FFFFFE000000000000000007F800023
:1009B80001FFFFFFC000000000000000001FE00072
:1009C80003FFFFFF80000000000000000003F000AC
:1009D80007FFFFFF00000000000000000000780093
:1009E8000FFFFFFE000000000000000000001C00D8
:1009F8001FFFFFFC000000000000000000000600D0
:100A0800101FFFF80000000003FE3FC7FC7FC10075
:100A1800000FFC000000000003FC3FC7FC7FC08003
:100A2800000FFC000000000007FC7FC7F87F804033
:100A3800001FFC000000000007FC7FC7F8FF807063
:100A4800001FF8000000000007F87F8FF8FF80788B
:100A5800001FF8000000000007F8FF8FF8FF007C77
:100A6800003FF800000000000FF8FF8FF0FF007E45
:0D0A7800003FF000000000000FF8FF1FF12C
:100A8500FF007F003FF000000000000FF0FF1FF1A6
:100A9500FF007F803FF000000000001FFFFF1FE107
:100AA500FE007FC07FF000000000001FFFFE1FE377
:100AB500FE007FC07FE000000000001FFFFE3FE357
:100AC500FE00FFE07FE000000000003FFFFE3FE387
:100AD500FC00FFE0FFE000000000003FFFFE3FC319
:100AE500FC01FFF0FFC000000000003FFFFC7FC7D6
:100AF500FC01FFF0FFC000000000003FE7FC7FFFA6
:100B0500F803FFF1FFC000000000007FC7FC7FFF76
:100B1500F807FFF1FF8000000000007FC7F87FFFA6
:100B2500F80FFFF1FF8000000000007F87F8FFFF4E
:100B3500F81FFFF1FF800000000000FF8FF8FFFFA6
:100B4500F03FFFF3FF800000000000FF8FF8FFFF7C
:100B5500F0FFFFF3FF0000000000000000000000B0
:100B650003FFFFE3FF00000000000000000000009D
:100B75000FFFFFE7FF00000000000000000000017C
:100B8500FFFFFFC7FE000000000003FC000000FFA0
:100B9500FFFFFF87FE00000000001FFFFFFFFFFFB4
:100BA500FFFFFF07FE00000000007FFFFFFFFFFFC4
:100BB500FFFFFE0FFE0000000001FFFFFFFFFFFF2C
:100BC500FFFFFC0FFC00000000000000000000001B
:100BD5000000000000000000000000000000000010
:100BE5000000000000000000000000000000000000
:100BF50000000000000000000000000000000000F0
:100C0500000000000000000000000001800000005E
:100C1500000000000000000000000001C00001808D
:100C2500000000180000000000000000E000018046
:100C35000000003C00001C00000000C0F000018026
:100C45000000C24C00001E38000000E1F80001E180
:100C55008000678C00000E3C00001DE7E00001F0FD
:100C6500C000739F8000070C00001FC7C00003E091
:100C7500C000761F8000072000000783E0001FE00A
:100C8500800000FF0000E3F00000078FE0003F81D7
:100C9500800407FF0001F3E000000F0FDE003B11A9
:100CA50000061FFE0003F3C000000F07FF003E73A0
:100CB50000073F1F0007E78000001B8FC0000FF3F0
:100CC5000003FF3F000FE7A0000033FEE0001F0315
:100CD5008003B7FF0003FFB0000063F7B0003C617D
:100CE500C0030FEE0018FCF0000007C630007CE0E2
:100CF50060032ECE003FC0F000000F07F001FCC0DE
:100D050060027CCF8067C0E000001F07F001EFC0E4
:100D1500C002599FC003E0E000001F07B0000FFFAD
:100D2500C002D1FFC083F3E000001B0FB0003DE718
:100D3500E000D3FF804F7F300000130FF0007FE30A
:100D4500F0038F83007E38180000030DB000C73E06
:100D550078038E83001810188000030C3800CE30FD
:100D65001C018CC30000000D8000030CF0007FE027
:100D75000C0180670000000780000104700030C08E
:100D85000400007E000000078000000070000000E5
:100D95000000001C0000000380000000300000007F
:100DA50000000000000000008000000000000000BE
:100DB500000000000000000000000000000000002E
:100DC500000000000000000000000000000000001E
:100DD500000000000000000000000000000000000E
:100DE50000000000000000000000000000000000FE
:0D0DF50000000000000000000000000000F1
:100E020000000000000000000000000000000000E0
:100E120000000000000000000000000000000000D0
:100E220000000000000000000000000000000000C0
:100E320000000000000000000000000000000000B0
:100E420000000000000000000000000000000000A0
:100E52000000000000000000000000000000000090
:100E62000000000000000000000000000000000080
:100E72000000000000000000000000000000000070
:100E82000000000000000000000000000000000060
:100E92000000000000000000000000000000000050
:100EA2000000000000000000000000000000000040
:100EB2000000000000000000000000000000000030
:100EC2000000000000000000000000000000000020
:100ED2000000000000000000000000000000000010
:100EE2000000000000000000000000000000000000
:100EF200000000000000000000000000001E0000D2
:100F0200000004000000078000000000007F0000D5
:100F12000000040000001FC00000000000C000002C
:100F22000000000000003800000000000180000006
:100F320000000000000030000000000001801043AB
:100F4200C3E3C47E0FC06003E373C3E0030010C6B3
:100F520063060C7318C06002639CC630030F10CC8A
:100F62003606046130C061C0330C6430030710CF11
:100F7200F3870C41304061E1F30867F0010110CFC3
:100F8200F1C3CC4130406067F30867F0018110CCB7
:100F92000060C441304060663308640000C198C4F8
:100FA2000020644110C030643308660000FF1FC790
:100FB200E7E7CC611FC01FE7F30863E0003E0E4382
:100FC200C3C784410E400783800801E0000000008F
:100FD20000000000004000000000000000000000CF
:100FE2000000000000C0000000000000000000003F
:100FF200000000001F800000000000000000000050
:10100200000000000E0000000000000000000000D0
:1010120000000000000000000000000000000000CE
:1010220000000000000000000000000000000000BE
:1010320000000000000000000000000000000000AE
:10104200000000000000000000000000000000009E
:10105200000000000000000000000000000000206E
:1010620000018000000000C00000000000000061DC
:10107200000100001800006000000000000018419C
:1010820080C206001800083FC0380000000008B007
:101092008067840018000F01C03800000000013092
:1010A2008004C4001800180000380000000001305D
:1010B200800484001800107800380000000001F05D
:1010C2008007840018E001C00018000000003931D8
:1010D200E0E487803FE000C4001000000000F9FF58
:1010E2008347BC03F800030C00100000000011301D
:1010F200804484001000049800100000000013ECEB
:10110200805FA400180001F000100000000010A48D
:101112008042B4001400025800100000000010B019
:1011220080848400360004EC0000000000001930C6
:1011320080E4840022000127C00000000000333058
:1011420080C8840063000621C01000000000303017
:1011520080908400C1C008200038000000000063B5
:1011620080039C0180F000600038000000000061F4
:0D11720080018C00007800E000000000000B
:10117F0000000000000000000000C00000000000A0
:10118F000000000000000000000000000000000050
:10119F000000000000000000000000000000000040
:1011AF000000000000000000000000000000000030
:1011BF000000000000000000000000000000000020
:1011CF000000000000000000000000000000000010
:1011DF000000000000000000000000000000000000
:1011EF0000000000000000000000000000000000F0
:1011FF0000000000000000000000000000000000E0
:10120F0000000000000000000000000000000000CF
:10121F0000000000000000000000000000000000BF
:10122F0000000000000000000000000000000000AF
:10123F00000000000000000000000000000000009F
:10124F00000000000000000000000000000000008F
:10125F00000000000000000000000000000000007F
:10126F00000000000000000000000000000000006F
:10127F00000000000000000000000000000000005F
:10128F0000FFE70000000E00000000000300000058
:10129F00008E330000000600000000000300000075
:1012AF00000613000000060000000000030000000D
:1012BF00000603000000060000000000030000000D
:1012CF0000060300000006000000000003000000FD
:1012DF00000602786C7786300E184C30C300000081
:1012EF0000060318C639862006088630C3000000A2
:1012FF0000060318C630C6C006118330C3000000B5
:10130F00000603180E30C78003118330C1000000A0
:10131F00000603182630C78003218330C000000069
:10132F0000060318C630C6C001A18330C0000000FC
:10133F00000603188630C66001E18330C00000004C
:10134F00000603088630C67000C1C230C00000001E
:10135F00000E031CFF30C63800C0C41EE30000009F
:10136F00000E071C6230C6380080380C8300000066
:10137F0000000000000000000080000000000000DE
:10138F0000000000000000000180000000000000CD
:10139F0000000000000000000F000000000000002F
:1013AF0000000000000000000E0000000000000020
:1013BF00000000000000000000000000000000001E
:1013CF00000000000000000000000000000000000E
:1013DF0000000000000000000000000000000000FE
:1013EF0000000000000000000000000000000000EE
:0F13FF00000000000000000000000000000000DF
:101E3C00022714E493A3F85407240CC8C333C454E6
:101E4C000F4420C8834004F456800146F6DFE4803A
:101E5C000B0102040810204080901D76E47E019353
:101E6C0060CEA3FF543F30E509541FFEE493A360FA
:101E7C00010ECF54E0B4E025E493FBA3E493FAA362
:101E8C00E493F9A3E493C083C0821218C6D082D025
:101E9C0083A309E970010ADFEBDEE980BF54C0259A
:101EAC00E06025408EE493A3FAE493A3F8E493A3B3
:101EBC00C8C582C8CAC583CAF0A3C8C582C8CAC56A
:101ECC0083CADFE9DEE78094E493A3F8E493A340AC
:0A1EDC0003F68001F208DFF48082B3
:011E2F0000B2
:1016CA00E709F608DFFA8046E709F208DFFA803E02
:1016DA0088828C83E709F0A3DFFA8032E309F608EF
:1016EA00DFFA8078E309F208DFFA807088828C8357
:1016FA00E309F0A3DFFA806489828A83E0A3F6080B
:10170A00DFFA805889828A83E0A3F208DFFA804CE4
:10171A0080D280FA80C680D4806980F280338010BB
:10172A0080A680EA809A80A880DA80E280CA803324
:10173A0089828A83ECFAE493A3C8C582C8CCC5839C
:10174A00CCF0A3C8C582C8CCC583CCDFE9DEE7806C
:10175A000D89828A83E493A3F608DFF9ECFAA9F0EB
:10176A00EDFB2289828A83ECFAE0A3C8C582C8CC41
:10177A00C583CCF0A3C8C582C8CCC583CCDFEADE5A
:10178A00E880DB89828A83E493A3F208DFF980CCBC
:10179A0088F0EF60010E4E60C388F0ED2402B404B5
:1017AA00005013F582EB2402B404005009232345A8
:1017BA00822390171A73ECC0E01217ECC904700167
:1017CA000AC8C9CACCCACBCDCB1218C6C904700183
:1017DA000AC8C9CACCCACBCDCBDFDEDEDCD0E00278
:0217EA0017677F
:1017EC00BB010689828A83E0225002E722BBFE02FB
:0E17FC00E322400789828A83E49322020000E0
:10180A00C2D5EC30E709B2D5E4C39DFDE49CFCEEF9
:10181A0030E715B2D5E4C39FFFE49EFE1218DDC37C
:10182A00E49DFDE49CFC80031218DD30D507C3E477
:06183A009FFFE49EFE2268
:10184000E88FF0A4CC8BF0A42CFCE98EF0A42CFC47
:101850008AF0EDA42CFCEA8EF0A4CDA8F08BF0A4C5
:101860002DCC3825F0FDE98FF0A42CCD35F0FCEB24
:101870008EF0A4FEA9F0EB8FF0A4CFC5F02ECD39E9
:0F188000FEE43CFCEAA42DCE35F0FDE43CFC2256
:10188F00EB9FF5F0EA9E42F0E99D42F0E89C45F0AF
:01189F002226
:1018A000D083D082F8E4937012740193700DA3A3D7
:1018B00093F8740193F5828883E4737402936860EB
:0618C000EFA3A3A380DFEB
:1020D000AC2BAD2CAE2DAF2E7810EC4D4E4F7004C6
:1020E0007CA57DA5C3EC13FCED13FDEE13FEEF13F1
:1020F000FF5010EC64CCFCED644CFDEE644EFEEF42
:1021000064CEFFD8DF8C2B8D2C8E2D8F2EEE547F3E
:0D211000FE228E2B8F2C74A5F52DF52E22AE
:1018C600BB010689828A83F0225002F722BBFE0200
:0718D600F32250FD020000A7
:1018DD00BC000BBE0029EF8DF084FFADF022E4CCEF
:1018ED00F875F008EF2FFFEE33FEEC33FCEE9DECB8
:1018FD00984005FCEE9DFE0FD5F0E9E4CEFD22EDFE
:10190D00F8F5F0EE8420D21CFEADF075F008EF2F47
:10191D00FFED33FD4007985006D5F0F222C398FD38
:05192D000FD5F0EA22D5
:00000001FF
