:03000000022007D4
:0C200700787FE4F6D8FD75812B02204E96
:1028A500E4F524F523F522F52175FFDE75FFAD125C
:0728B500284812288880FB6F
:03000B00022801C7
:10280100C0E0C0D0758A30758CF8E5242401F52428
:10281100E43523F523E43522F522E43521F521D0F1
:04282100D0D0E03201
:10290700758E08758810758901758A30758CF8225F
:0A29340075A4FF75A6E075E34022CC
:0700030075A88275B8022206
:102848001229071229341200037F0A7E0012229CE3
:102858001222E812278B7FE87E037D007C0002238A
:01286800630C
:0E29260020A60475A4FF22E4F5A47580FF220C
:0F291700C2A5D2A6122926D2A72087FDC2A722C9
:1027B300122917C2A5C2A61229268F807F017E0087
:1027C3007D007C00122363D2A77F017E007D007C05
:0727D30000122363C2A722DC
:0626600014F9121A04FF38
:10266600122917D2A5C2A61229268F807F017E00C5
:102676007D007C00122363D2A77F017E007D007C53
:0726860000122363C2A7222A
:052979007F010227B3FD
:1022E8007F341227B37F057E007D007C00122363B4
:1022F8007F301227B37F057E007D007C00122363A8
:102308007F0C1227B37F057E007D007C00122363BB
:102318007F011227B37F057E007D007C00022363C6
:10268D008F17ED24FE601014601314601624037070
:10269D001AE51744808010E5174490800AE5174429
:0C26AD00888004E5174498FF1227B32230
:05297E007F100227B3E9
:0626B9008B148A1589163E
:1026BF0012268DAB14AA15A9168013EF60161226D9
:1026CF0066AB140516E51670020515F9AA15121A50
:0426DF0004FF80E78D
:0126E30022D4
:0A293E008B1412268DAF14022666DA
:062116008B0B8A0C890D01
:10211C007F341227B3750E80E4F50FAF0E050E1247
:10212C0027B37F801227B3E4F510AB0B050DE50D3B
:10213C00AA0C7002050C1226600510E510C3941051
:10214C0040E8050FE50FC3942040D0750E80E4F5F0
:10215C000FAF0E050E1227B37F881227B3E4F510CC
:10216C00AB0B050DE50DAA0C7002050C12266005D3
:10217C0010E510C3941040E8050FE50FC394204000
:0B218C00D07F361227B37F300227B34C
:072948000000000000000088
:101E9B0075A5F075900FE590640F60FA7F0A7E00D0
:101EAB007D007C00122363E590640F60E98590143C
:101EBB0075A50F7590F07F0A7E007D007C001223C4
:101ECB0063AF90E5144F121AB31F17771F2B7B1FAD
:101EDB003F7D1F537E1F12B71F26BB1F3ABD1F4EE0
:101EEB00BE1F0DD71F21DB1F35DD1F49DE1F08E786
:101EFB001F1CEB1F30ED1F44EE00001F56E4F515C1
:101F0B0080497515018044751502803F7515038056
:101F1B003A75150480357515058030751506802BBF
:101F2B0075150780267515088021751509801C7598
:101F3B00150A801775150B801275150C800D75150C
:101F4B000D800875150E800375150F75A5F075902E
:101F5B000FE590B40FFB7F0A7E007D007C001223FF
:081F6B0063E590B40FEBAF1524
:011F7300224B
:1028BC00121E9B7E00EF640F7002C322EF640E4E5B
:0328CC0070EED3D8
:0128CF0022E6
:1016D000E4F50BC2021227399202300202D3221221
:1016E0002979E4F50A745E250AF582E43400F5836D
:1016F000E4F0050AE50AB440ECE4F50AE50AC3940F
:101700004150DC121E9B8F0BE50BC3940040047FFD
:101710000180027F00E50AC3944050047E018002EC
:101720007E00EE5FFFE50BD3940950047E0180023A
:101730007E00EE5F603FE50B9028F693FF745E2518
:101740000AF582E43400F583EFF0F50BE50AB410F6
:1017500006AB0B7D028009E50AB42008AB0B7D03C4
:10176000E4021901E50AAB0BB430057D04E4800204
:10177000E4FD021901E50BB40F047F0180027F0034
:10178000E50AD3940040047E0180027E00EE5F6093
:1017900002C322E50BB40E02D322E50BB40D047F85
:1017A0000180027F00E50AD3940040047E0180029C
:1017B0007E00EE5F60030216DFE50BB40C047F01D0
:1017C00080027F00E50AD3940040047E0180027EFF
:1017D00000EE5F7003021907E50A30E02F7B20E47A
:1017E000FDFF12293E150A745E250AF582E43400D5
:1017F000F583E4F012297E7B20E4FDFF12293E7B75
:1018000020E4FDFF12293E12297E150AE50A30E088
:101810000302190964107036150A745E250AF582F0
:10182000E43400F583E4F0150A745E250AF582E4D9
:101830003400F583E0F50B7B207D017F0712293E04
:101840007B20E4FDFF12293EAB0B7D018076E50A8B
:1018500064207036150A745E250AF582E43400F5BA
:1018600083E4F0150A745E250AF582E43400F583FA
:10187000E0F50B7B207D027F0712293E7B20E4FDF3
:10188000FF12293EAB0B7D02803AE50A64307038C6
:10189000150A745E250AF582E43400F583E4F01538
:1018A0000A745E250AF582E43400F583E0F50B7BCB
:1018B000207D037F0712293E7B20E4FDFF12293E95
:1018C000AB0B7D037F07803A150A745E250AF5820B
:1018D000E43400F583E4F0150A745E250AF582E429
:1018E0003400F583E0F50B12297E7B20E4FDFF1226
:1018F000293E7B20E4FDFF12293E12297EAB0BE43A
:0E190000FDFF12293E8002150A050A0216FCA0
:101D1500E4F509780A7C00FD7BFF7A297948FE7F86
:101D2500021219DEC2001227399200300002D322B6
:101D3500122979E4F508740A2508F8E4F60508E59A
:101D450008B402F2E4F508E508C3940350E2121E54
:101D55009B8F09E509C3940040047F0180027F0041
:101D6500E508C3940250047E0180027E00EE5FFF09
:101D7500E509D3940950047E0180027E00EE5F6080
:101D85000A740A2508F8A609021E68E509B40F04B5
:101D95007F0180027F00E508D3940040047E018026
:101DA500027E00EE5F603DE508B40105850A2B80E3
:101DB5000AE50A75F00AA4250BF52BE52BD394400B
:101DC50050047F0180027F00E52BC3940140047E0F
:101DD5000180027E00EE5F6002C32212294F40039C
:101DE500021D3522E509B40E02D322E509B40C041F
:101DF5007F0180027F00E508D3940040047E0180C6
:101E0500027E00EE5F6069E50830E0297B20E4FD95
:101E1500FF12293E1508740A2508F8E4F612297EF2
:101E25007B20E4FDFF12293E7B20E4FDFF12293EC5
:101E350012297E1508E50820E0571508740A2508BB
:101E4500F8E4F61508740A2508F8E6F50912297E5E
:101E55007B20E4FDFF12293E7B20E4FDFF12293E95
:101E650012297EE5092430FBE4FDFF12293E80217D
:101E7500E509B40D047F0180027F00E508D39400D5
:101E850040047E0180027E00EE5F6003021D351571
:061E9500080508021D4CC7
:101B2E00E4F50A780B7C00FD7BFF7A29794AFE7F6B
:101B3E00051219DEC2001227399200300002D3229C
:101B4E00122979E4F508740B2508F8E4F60508E582
:101B5E0008B405F2E4F508E508C3940650E2121E37
:101B6E009B8F0AE50AC3940040047F0180027F0028
:101B7E00E508C3940550047E0180027E00EE5FFFEF
:101B8E00E50AD3940950047E0180027E00EE5F6068
:101B9E000A740B2508F8A60A021D01E50AB40F0403
:101BAE007F0180027F00E508D3940040047E01800F
:101BBE00027E00EE5F7003021C63E4F513F512F56E
:101BCE0011F510F509E509C39508503AE47F0AFEB0
:101BDE00FDFCAB13AA12A911A810121A53C004A926
:101BEE0005AA06AB07740B2509F8E6FFE4FCFDFE1B
:101BFE00D000EB2FF513EE3AF512ED39F511EC3866
:101C0E00F510050980BFE47FFF7EFFFDFCAB13AA34
:101C1E0012A911A810D3121AA250067F01C0078074
:101C2E00047F00C007E47F32FEFDFCAB13AA12A9AD
:101C3E0011A810C3121AA240047E0180027E00D0A9
:101C4E00E05E600885122985132AC32212295540A9
:101C5E0003021B4E22E50AB40E02D322E50AB40D8E
:101C6E00047F0180027F00E508D3940040047E01CA
:101C7E0080027E00EE5F6003021B4EE50AB40C0488
:101C8E007F0180027F00E508D3940040047E01802E
:101C9E00027E00EE5F6069E50830E0297B20E4FDFE
:101CAE00FF12293E1508740B2508F8E4F612297E5A
:101CBE007B20E4FDFF12293E7B20E4FDFF12293E2E
:101CCE0012297E1508E50820E0381508740B250842
:101CDE00F8E4F61508740B2508F8E6F50A12297EC5
:101CEE007B20E4FDFF12293E7B20E4FDFF12293EFE
:101CFE0012297EE50A2430FBE4FDFF12293E800204
:071D0E0015080508021B6522
:10273900C203121E9BEFD3940F50047E0180027EC8
:1027490000EFC3940040047D0180027D00ED5E60CE
:08275900E1BF0E02D203A2034E
:012761002255
:06294F0012258A0228BCDB
:062955001225C10228BC9E
:082363008F1B8E1A8D198C18D6
:10236B0085241F85231E85221D85211CC3E52495ED
:10237B001FFFE523951EFEE522951DFDE521951C0E
:0F238B00FCAB1BAA1AA919A818C3121AA270DD5D
:01239A002220
:10140E00B2C2CAFDD3CECFB70020477565737369DC
:10141E006E672067616D6500303ABDF8C8EBD3CEBC
:10142E00CFB700313AD6C2D0BB00B0B4CAFDD7D6C2
:10143E00BCFCD1A1D4F1C4A3CABD00303AB4B3B937
:10144E00D8C4A3CABD00313AC1B7CFB0C4A3CABD78
:10145E0000323ACBE6BBFAC4A3CABD00B0B4CAFD93
:10146E00D7D6BCFCCAE4C8EBCEBBCAFD00B0B446AE
:10147E0020BCFCC8B7C8CF00B0B44520BCFCB7B583
:10148E00BBD800B0B44420D6D8CAE4B0B44320CD03
:10149E00CBB8F100B0B4CAFDD7D6BCFCCAE4C8EBD9
:1014AE00CAB1BCE400C4E3D7BCB1B8BAC3C1CBC2A5
:1014BE00F0A3BF00B0B44620BCFCBFAACABCD3CEBA
:1014CE00CFB700B0B4CAFDD7D6BCFCCAE4C8EBCACD
:1014DE00FDD7D6002A2AB9A7CFB2C4E3B2C2B6D47A
:1014EE00C1CB2A2A00B0B44620BCFCBCCCD0F8D369
:1014FE00CECFB7002A2A2A2A2A2A2A2A2A2A2A2A92
:10150E002A2A2A2A00BADCBFC9CFA7C4E3B2C2B4C2
:10151E00EDC1CB232300B0B44620BCFCD6D8D0C23C
:10152E00BFAACABC0023232323232323232323233D
:10153E00232323232300B9A7CFB2C4E3B4B3B9D86E
:10154E00B3C9B9A62A2A00B0B44620BCFCD4D9B47B
:10155E00CECCF4D5BD00BADCBFC9CFA7B4B3B9D8D1
:10156E00CAA7B0DC232300CAE4C8EBCEBBCAFDB7C2
:10157E00C7B7A800313C3D20CAE4C8EBCEBBCAFDBC
:10158E003C3D363400B0B44620BCFCD6D8CAE4008C
:10159E00CAE4C8EBCFD4CABECAB1BCE4B7C7B7A8B9
:1015AE000035303C3DCAB1BCE43C3D3635353335B3
:1015BE0000B7C7B3A3B8D0D0BBC4DCD3D0D5E2B488
:1015CE00CEBBFABBE1D7F6CCE1B8DFCAB5D1E9A301
:1015DE00ACCCE1B8DFCAB5D1E9BDD3BDFCD5E6CA06
:1015EE00B5B5C4B9A4B3CCCFEEC4BFA3ACD3D0D2DF
:1015FE00BBB6A8B5C4C4D1B6C8A3ACB5ABCAC7CE2A
:10160E00D2BFCBB7FED6D6D6D6C0A7C4D1A3ACCB4D
:10161E00B3C0FBB8DFD6CAC1BFB5D8CDEAB3C9C116
:10162E00CBB2C2CAFDD3CECFB7CFEEC4BFA3ACCC24
:10163E00E1B8DFC1CBCED2B5C44320D3EFD1D4BAFB
:10164E00CDBBE3B1E0D3EFD1D4B1E0B3CCC4DCC1B8
:10165E00A6A3ACBCD3C9EEC1CBB6D4B5A5C6ACBBA4
:10166E00FABACDC7B6C8EBCABDCFB5CDB3B5C4C0F7
:10167E00EDBDE2A3ACB8D0D0BBC2DEC0CFCAA6BA15
:10168E00CDD6FABDCCB5C4D6B8B5BCA3A1A3A12006
:10169E00204D41444520425920CDF5D0C4E5AB2024
:1016AE002032303233C4EA3132D4C23233C8D5207C
:1016BE00205468616E6B20796F7520616761696E69
:0216CE002100F9
:10278B007BFF7A08790E1228E47FE87E037D007CBC
:10279B00001223637BFF7A04790E1228E47FE87E14
:0827AB00037D007C00022363A2
:1028D0007BFF7A0C790E1228E47FDC7E057D007C7C
:0428E000000223636C
:101F7400E4F508F509F508F509E509543F7003127D
:101F8400297974BF2509F58274153508F583E4931E
:101F9400FB606FE509543F641070047D028049E5DD
:101FA40009543F6420701474BF2509F582741535F3
:101FB40008F583E493FB7D03E4802DE509543F6435
:101FC40030701474BF2509F58274153508F583E45F
:101FD40093FB7D04E4801174BF2509F582741535E3
:101FE40008F583E493FBE4FDFF12293E7F647E0041
:101FF4007D007C001223630509E5097002050802CF
:022004001F7D3E
:0120060022B7
:1026E4007BFF7A00790E1228E47FE87E037D007C6C
:1026F40000122363121F747BFF7A10790E1228E4F0
:0B2704007FE87E037D007C0002236361
:1028E4008B088A09890A122979AB08AA09A90A025C
:0228F4002116AB
:10239B001229797BFF7A14790E7D017F021226B9FF
:1023AB007BFF7A1479177D02E4FF1226B97BFF7A43
:1023BB001479267D03E4FF1226B97BFF7A14793159
:0723CB007D04E4FF0226B9C6
:1023D2001229797BFF7A1479387D01E4FF1226B93C
:1023E2007BFF7A1479497D02E4FF1226B97BFF7ADA
:1023F2001479547D03E4FF1226B97BFF7A14795FC6
:072402007D04E4FF0226B98E
:102409001229797BFF7A14796A7D01E4FF1226B9D2
:102419007BFF7A14797B7D02E4FF1226B97BFF7A70
:102429001479867D03E4FF1226B97BFF7A1479912A
:072439007D04E4FF0226B957
:102440001229797BFF7A1479A27D01E4FF1226B963
:102450007BFF7A14797B7D02E4FF1226B97BFF7A39
:102460001479867D03E4FF1226B97BFF7A147991F3
:072470007D04E4FF0226B920
:10270F001229797BFF7A1479B37D017F011226B9E3
:10271F007BFF7A1479C27D02E4FF1226B97BFF7A20
:0A272F001479867D03E4FF0226B949
:102477001229797BFF7A1479D17D01E4FF1226B9FD
:102487007BFF7A14797B7D02E4FF1226B97BFF7A02
:102497001479867D03E4FF1226B97BFF7A147991BC
:0724A7007D04E4FF0226B9E9
:1024AE001229797BFF7A1479E27D01E4FF1226B9B5
:1024BE007BFF7A1479F37D02E4FF1226B97BFF7A53
:1024CE001479867D03E4FF1226B97BFF7A15790213
:0724DE007D04E4FF0226B9B2
:1024E5001229797BFF7A1579137D01E4FF1226B94C
:1024F5007BFF7A1579247D02E4FF1226B97BFF7AEA
:102505001479867D03E4FF1226B97BFF7A157933AA
:072515007D04E4FF0226B97A
:10251C001229797BFF7A1579447D01E4FF1226B9E3
:10252C007BFF7A1579557D02E4FF1226B97BFF7A81
:10253C001479867D03E4FF1226B97BFF7A157902A4
:07254C007D04E4FF0226B943
:102553001229797BFF7A1579647D01E4FF1226B98C
:102563007BFF7A1579557D02E4FF1226B97BFF7A4A
:102573001479867D03E4FF1226B97BFF7A1579333C
:072583007D04E4FF0226B90C
:10209300E4F50BF50A741E250AF582E43400F58392
:1020A300E4F0050AE50AB440EC122979E4F50AE5FF
:1020B3000AC3952B505312225A7C007D0A121A1D13
:1020C30074F62DF58274283CF583E493FFF50B74C5
:1020D3001E250AF582E43400F583EFF0E50AB41017
:1020E30006AB0B7D028009E50AB42007AB0B7D0329
:1020F300E4800EE50AAB0BB430057D04E48002E412
:10210300FDFF12293E050A80A6AE29AF2AE4FCFD95
:0321130002236341
:10258A001229797BFF7A1579757D01E4FF1226B944
:10259A007BFF7A1579827D02E4FF1226B97BFF7AE6
:1025AA001579937D03E4FF1226B97BFF7A147986A5
:0725BA007D04E4FF0226B9D5
:1025C1001229797BFF7A15799E7D01E4FF1226B9E4
:1025D1007BFF7A1579AF7D02E4FF1226B97BFF7A82
:1025E1001579937D03E4FF1226B97BFF7A1479866E
:0725F1007D04E4FF0226B99E
:1028F6003031323334353637383941424344454630
:0129060000D0
:102197006040001E0000000000000000000000007A
:1021A7000000000000000000000000000000000028
:1021B7000000000000000000000000000000000018
:1021C7000000000000000000000000000000000008
:1021D70000000000012B00022900004A0014010240
:1021E700030405060708090A54000000C801900205
:0F21F70058032003E804B005780640070807D016
:1027DA00E4FF745E2FF582E43400F583E0FE741E94
:1027EA002FF582E43400F583E0B506040FBF40E21A
:0627FA00BF4002D322C320
:0128000022B5
:06295B001224AE0228BCAC
:062961001224E50228BC6F
:0629670012251C0228BC31
:06296D001225530228BCF4
:10232800E4F5081220931224771216D0E433F50846
:10233800B40102FF221227DA920030000D12295B45
:102348009201300102800B7F002212296192013034
:0A2358000106750801AF08227F029C
:012362002258
:1022A700E4FD1220931224771216D0E433FDBD010A
:1022B70002FF221227DA920130011F20000E122995
:1022C7005BE433FDBD0102FF227F0222122967E48E
:1022D70033FDBD0102FF227F002212296DE433FF87
:0122E70022D4
:1027620012239B121E9BBF01047E0180027E00EF9A
:1027720070047D0180027D00ED4EFEBF0E047D01DE
:0827820080027D00ED4E60DBDA
:01278A00222C
:1025F8001223D2121E9BBF01047E0180027E00EFCF
:1026080070047D0180027D00ED4EFEBF02047D0155
:1026180080027D00ED4EFEBF0E047D0180027D002C
:04262800ED4E60CF44
:01262C00228B
:0629730012270F0228BC30
:10220700E4F508E4F50874142508F582E43400F5CC
:1022170083E0F52BE50825E02400F582E43400F59A
:1022270083E0F529A3E0F52A1229734025E508B4D0
:102237000903D38001C392001222A78F09E509641D
:1022470001600FE50960BC0508E508C3940A40B6BC
:0222570080B154
:012259002262
:10286900122409121D154016122440121B2E400E67
:0F28790012270F1229734006122328BF01F522E0
:10262D0012225A7C007D08121A1DED04F52B122280
:10263D005A7C007D65121A1DE52B75F0C8A4AEF00D
:10264D002DF52AEE3CF5291229734006122328BFD9
:03265D0001CE2289
:032983000226E445
:102825001225F8EF640E601AEF14600C14600E2484
:102835000270ED12220780E812286980E312262D26
:0228450080DE33
:01284700226E
:102888001228D0122762EF640E6011EF146008045A
:0C28980070F112282580EC12298380E7E3
:0128A4002211
:10000E0000000000000000000000000000000000E2
:10001E0000000000000000000000000000000000D2
:10002E0000000000000000000000000000000000C2
:10003E0000000000000000D40000000000000000DE
:10004E00000000000000050100000000000000009C
:10005E000000000000001000800000000000000002
:10006E000000000000002000000000000000000062
:10007E0000000000000040008000000000000000B2
:10008E000000000000200000000000000000000042
:10009E00000003500050800100000000000000002E
:1000AE0000003C0400A00000000000000000000062
:1000BE00000040010B1500020000000000000000CF
:1000CE0000004000880000068000000000000000D4
:1000DE0000018000600000054000000000000000EC
:1000EE000002000000000003900001B63600000080
:1000FE000000000000000002400001FE360000007B
:10010E000000800000000002200001B63600000052
:10011E000000400000000002A000036FFF0000007E
:10012E00000020000000001D000000002C00000058
:10013E000000000000000005C000000028000000C4
:10014E000000100000000004000000003800000055
:10015E00000000000000000A8040000000000000C7
:10016E000000108000001F0847F80000000000008B
:10017E000000012000003D130C0E000000000000E6
:10018E0000000810000027A0180600000000000064
:10019E000000021000003F8038C700000000000081
:1001AE0000000403E00033903FC700000000000091
:1001BE0000000003B00033107F8700000000000035
:1001CE0000000824F00C0E00FF1F000000000000CD
:1001DE0000000007F0C20000FE1F81B3E6D8F00059
:1001EE0000000846710600083F1F01F667F9B000CF
:1001FE0000000003209800003FFF01B6C6D9800022
:10020E0000000840C02400043F1F037FFDBEFC0019
:10021E0000000000000000021E1E00000000000092
:10022E0000000800000000010E1C0000000000008D
:10023E00000008000000000087F000000000000031
:10024E0000000000000000000000000000000000A0
:10025E00000004000000000040000000000000004C
:10026E000000000000000000200000000000000060
:10027E00000002000000000000000000000000006E
:10028E00000001000000000010000000000000004F
:10029E000000008000000000000000C00000000010
:1002AE000000004000000002080000C00000000036
:1002BE0000000040000000000000000400000000EC
:1002CE0000000000000000018800018C000000000A
:1002DE0000000000000000002000018E0000000061
:1002EE000000004000000001000001B606DB6C00BB
:1002FE000000000000000000000003FF06DB6C00A1
:10030E00000000400000000100000000000000009E
:10031E0000000000000000000000000000000000CF
:10032E00000000200000000200000000000000009D
:10033E00000000100000000400000000000000009B
:10034E00000000000000000000000000000000009F
:10035E000000000800000010000000000000000077
:10036E00000000020000002000000000000000005D
:10037E0000000000400001400000000000000000EE
:10038E000000000094A4684000000000000000007F
:10039E000000000002190000000000000000000034
:1003AE00000000004200108000000000000000006D
:1003BE00000000002000010000000000000000000E
:1003CE000000000014000A00000000000000000001
:1003DE00000000000000000000000000000000000F
:1003EE0000000000000000000000000000000000FF
:1003FE0000000000000000000000000000000000EF
:10040E0000000000000000000000000000000000DE
:10041E00000000000000000FF000000000000000CF
:10042E0000000000000001C003800000000000007A
:10043E000000000000000E00007000000000000030
:10044E000000000000003008000C0000000000005A
:10045E00000000000000C0101003000000000000AB
:10046E0000000000000100041000800000000000E9
:10047E000000000000060000306060000000000078
:10048E0000000000000802100040100000000000F4
:10049E0000000000001004000040080000000000F2
:1004AE000000000000200000000104000000000019
:1004BE0000000000004280000002C20000000000A8
:1004CE0000000000008040000004810000000000D9
:1004DE000000000001010100000300800000000088
:1004EE0000000000010084000020008000000000D9
:1004FE00000000000218000000000840000000008C
:10050E0000000000040C200000041C20000000006D
:10051E0000000000040040018002002000000000E6
:10052E000000000008108003C00100100000000051
:10053E000000000008000007E000001000000000AE
:10054E000000000010000007E0000008000000009E
:10055E000000000011020007E000408800000000CB
:10056E000000000000800077EE0000800000000018
:10057E0000000000212000FFFF0003C40000000067
:10058E00000000002000003FFC00000400000000FE
:10059E00000000002000001FF80000040000000012
:1005AE000000000000000007E00000000000000056
:1005BE00000000000A000187E180006000000000DA
:1005CE0000000000430003E7E7C000220000000027
:1005DE0000000000420001E7E780008200000000FA
:1005EE000000000040000067E6000022000000004E
:1005FE000000000040000807E010000200000000AC
:10060E000000000040001E07E0780002000000001D
:10061E000000000040001F87E1F80002000000000B
:10062E0000000000400007C7E3E0000200000000E9
:10063E0000000000400003F7EFC0000200000000C1
:10064E00000000004000E0FFFF0700020000000075
:10065E00000000000000F83FFC1F0000000000003A
:10066E000000000020007E0FF07E0004000000005D
:10067E000000000020001F87E1F8000400000000C9
:10068E0000000000200007C7E3E0000400000000A7
:10069E0000000000000003E7E7C0000000000000BB
:1006AE0000000000100200E7E70040080000000014
:1006BE000000000010000027E40000080000000009
:1006CE000000000008000007E0000010000000001D
:1006DE000000000008008007E0010010000000008C
:1006EE000000000004004001800200200000000015
:1006FE0000000000040020000004002000000000A4
:10070E000000000002000000000000400000000099
:10071E000000000001000400002000800000000026
:10072E0000000000010001000080008000000000B9
:10073E0000000000008080000000010000000000AA
:10074E000000000000400000000002000000000059
:10075E000000000000200000000004000000000067
:10076E000000000000100000000008000000000063
:10077E000000000000080000000010000000000053
:10078E0000000000000600000000600000000000F5
:10079E0000000000000100080000800000000000C2
:1007AE00000000000000C000000300000000000078
:1007BE000000000000003000000C000000000000EF
:1007CE000000000000000C000030000000000000DF
:1007DE0000000000000001C00380000000000000C7
:1007EE00000000000000001FF800000000000000E4
:1007FE0000000000000000000000000000000000EB
:10080E0000000000000000000000000000000000DA
:10081E0000000000000000000007FF0000000000C4
:10082E0000000000000000001FFFFFFFC0000000DE
:10083E000000000000000007FFFFFFFFFF000000A8
:10084E00000000000000007FFFFFFFFFFFF0000030
:10085E0000000000000003FFFFFFFFFFFFFE00008F
:10086E000000000000000FFFFFFFFFFFFFFFC000B2
:10087E000000000000003FFFFFFFFFFFFFFFF00042
:10088E000000000000007FFFFFFFFFFFFFFFF800EA
:10089E0000000000003F003FFFFFFFFFFFFFFE00D4
:1008AE000000000001FE00003FFFFFFFFFFFFE0003
:1008BE000000000003FE000000FFFFFFFFFFFF002F
:1008CE000000000003FE00000007FFFFFFFFFF8097
:1008DE000000000007FE000000003FFFFFFFFF804A
:1008EE000000000007FE0000000003FFFFFFFF8076
:1008FE000000000007FF00000000003FFFFFFF8028
:10090E000000000003FF800000000007FFFFFF80D3
:10091E000000000001FFC00000000000FFFFFF808C
:10092E000000000000FFF000000000001FFFFF00AD
:10093E0000000000007FFC000000000003FFFF002D
:10094E0000000000001FFE000000000000FFFE007F
:10095E00000000000007FF8000000000001FFE00E6
:10096E00000000000001FFE0000000000007FC0096
:10097E000000000000003FF0000000000003F8003F
:10098E000000000000000FFC000000000003F0005B
:10099E0000000000000003FF0000003FFFFFE0002A
:1009AE00000000000000007F800001FFFFFFC0007C
:1009BE00000000000000001FE00003FFFFFF8000AA
:1009CE000000000000000003F00007FFFFFF000022
:1009DE00000000000000000078000FFFFFFE000086
:1009EE0000000000000000001C001FFFFFFC0000C4
:1009FE0000000000000000000600101FFFF80000BD
:100A0E00000003FE3FC7FC7FC100000FFC0000008A
:100A1E00000003FC3FC7FC7FC080000FFC000000FD
:100A2E00000007FC7FC7F87F8040001FFC0000001D
:100A3E00000007FC7FC7F8FF8070001FF800000061
:100A4E00000007F87F8FF8FF8078001FF800000085
:100A5E00000007F8FF8FF8FF007C003FF800000051
:100A6E0000000FF8FF8FF0FF007E003FF000000047
:100A7E0000000FF8FF1FF1FF007F003FF0000000A5
:100A8E0000000FF0FF1FF1FF007F803FF00000001D
:100A9E0000001FFFFF1FE1FE007FC07FF00000007F
:100AAE0000001FFFFE1FE3FE007FC07FE00000007E
:100ABE0000001FFFFE3FE3FE00FFE07FE0000000AE
:100ACE0000003FFFFE3FE3FC00FFE0FFE000000000
:100ADE0000003FFFFE3FC3FC01FFF0FFC00000001F
:100AEE0000003FFFFC7FC7FC01FFF0FFC0000000CD
:100AFE0000003FE7FC7FFFF803FFF1FFC00000009E
:100B0E0000007FC7FC7FFFF807FFF1FF80000000A9
:100B1E0000007FC7F87FFFF80FFFF1FF8000000095
:100B2E0000007F87F8FFFFF81FFFF1FF8000000035
:100B3E000000FF8FF8FFFFF03FFFF3FF8000000083
:100B4E000000FF8FF8FFFFF0FFFFF3FF0000000033
:100B5E000000000000000003FFFFE3FF00000000A4
:100B6E00000000000000000FFFFFE7FF0000000084
:100B7E0000000000000001FFFFFFC7FE00000000A4
:100B8E000003FC000000FFFFFFFF87FE00000000D7
:100B9E00001FFFFFFFFFFFFFFFFF07FE000000002B
:100BAE00007FFFFFFFFFFFFFFFFE0FFE00000000B4
:100BBE0001FFFFFFFFFFFFFFFFFC0FFC0000000027
:100BCE000000000000000000000000000000000017
:100BDE000000000000000000000000000000000007
:100BEE0000000000000000000000000000000000F7
:100BFE0000000000000000000000000000000000E7
:100C0E000000018000000000000000000000000055
:100C1E00000001C00001800000001800000000006C
:100C2E00000000E00001800000003C00001C0000FD
:100C3E000000C0F00001800000C24C00001E380011
:100C4E000000E1F80001E18000678C00000E3C001E
:100C5E00001DE7E00001F0C000739F8000070C004C
:100C6E00001FC7C00003E0C000761F8000072000F1
:100C7E00000783E0001FE0800000FF0000E3F000AB
:100C8E0000078FE0003F81800407FF0001F3E000C2
:100C9E00000F0FDE003B1100061FFE0003F3C00025
:100CAE00000F07FF003E7300073F1F0007E780009D
:100CBE00001B8FC0000FF30003FF3F000FE7A000E3
:100CCE000033FEE0001F038003B7FF0003FFB000F8
:100CDE000063F7B0003C61C0030FEE0018FCF0009B
:100CEE000007C630007CE060032ECE003FC0F0004F
:100CFE00000F07F001FCC060027CCF8067C0E000EF
:100D0E00001F07F001EFC0C002599FC003E0E000D2
:100D1E00001F07B0000FFFC002D1FFC083F3E00039
:100D2E00001B0FB0003DE7E000D3FF804F7F300087
:100D3E0000130FF0007FE3F0038F83007E3818005E
:100D4E0000030DB000C73E78038E83001810188084
:100D5E0000030C3800CE301C018CC30000000D8047
:100D6E0000030CF0007FE00C01806700000007809C
:100D7E00000104700030C00400007E0000000780F7
:100D8E00000000700000000000001C000000038046
:100D9E000000003000000000000000000000008095
:100DAE000000000000000000000000000000000035
:100DBE000000000000000000000000000000000025
:100DCE000000000000000000000000000000000015
:100DDE000000000000000000000000000000000005
:100DEE0000000000000000000000000000000000F5
:100DFE0000000000000000000000000000000000E5
:100E0E0000000000000000000000000000000000D4
:100E1E0000000000000000000000000000000000C4
:100E2E0000000000000000000000000000000000B4
:100E3E0000000000000000000000000000000000A4
:100E4E000000000000000000000000000000000094
:100E5E000000000000000000000000000000000084
:100E6E000000000000000000000000000000000074
:100E7E000000000000000000000000000000000064
:100E8E000000000000000000000000000000000054
:100E9E000000000000000000000000000000000044
:100EAE000000000000000000000000000000000034
:100EBE000000000000000000000000000000000024
:100ECE000000000000000000000000000000000014
:100EDE000000000000000000000000000000000004
:100EEE0000000000000000000000000000000000F4
:100EFE00001E00000000040000000780000000003B
:100F0E00007F00000000040000001FC00000000071
:100F1E0000C00000000000000000380000000000CB
:100F2E000180000000000000000030000000000002
:100F3E0001801043C3E3C47E0FC06003E373C3E0BC
:100F4E00030010C663060C7318C06002639CC630A3
:100F5E00030F10CC3606046130C061C0330C643010
:100F6E00030710CFF3870C41304061E1F30867F0BF
:100F7E00010110CFF1C3CC4130406067F30867F038
:100F8E00018110CC0060C4413040606633086400BB
:100F9E0000C198C40020644110C03064330866005C
:100FAE0000FF1FC7E7E7CC611FC01FE7F30863E030
:100FBE00003E0E43C3C784410E400783800801E004
:100FCE0000000000000000000040000000000000D3
:100FDE00000000000000000000C000000000000043
:100FEE0000000000000000001F8000000000000054
:100FFE0000000000000000000E00000000000000D5
:10100E0000000000000000000000000000000000D2
:10101E0000000000000000000000000000000000C2
:10102E0000000000000000000000000000000000B2
:10103E0000000000000000000000000000000000A2
:10104E000000000000000000000000000000000092
:10105E000000002000018000000000C00000000021
:10106E000000006100010000180000600000000098
:10107E000000184180C206001800083FC03800006A
:10108E00000008B08067840018000F01C03800000F
:10109E00000001308004C400180018000038000061
:1010AE000000013080048400180010780038000021
:1010BE00000001F08007840018E001C00018000055
:1010CE0000003931E0E487803FE000C400100000EA
:1010DE000000F9FF8347BC03F800030C001000006A
:1010EE0000001130804484001000049800100000AD
:1010FE00000013EC805FA400180001F00010000047
:10110E00000010A48042B400140002580010000029
:10111E00000010B080848400360004EC0000000053
:10112E000000193080E4840022000127C000000076
:10113E000000333080C8840063000621C010000018
:10114E000000303080908400C1C0082000380000BC
:10115E000000006380039C0180F0006000380000F6
:10116E000000006180018C00007800E000000000AB
:10117E000000000000000000000000C000000000A1
:10118E000000000000000000000000000000000051
:10119E000000000000000000000000000000000041
:1011AE000000000000000000000000000000000031
:1011BE000000000000000000000000000000000021
:1011CE000000000000000000000000000000000011
:1011DE000000000000000000000000000000000001
:1011EE0000000000000000000000000000000000F1
:1011FE0000000000000000000000000000000000E1
:10120E0000000000000000000000000000000000D0
:10121E0000000000000000000000000000000000C0
:10122E0000000000000000000000000000000000B0
:10123E0000000000000000000000000000000000A0
:10124E000000000000000000000000000000000090
:10125E000000000000000000000000000000000080
:10126E000000000000000000000000000000000070
:10127E000000000000000000000000000000000060
:10128E000000FFE70000000E000000000003000059
:10129E0000008E3300000006000000000003000076
:1012AE00000006130000000600000000000300000E
:1012BE00000006030000000600000000000300000E
:1012CE0000000603000000060000000000030000FE
:1012DE0000000602786C7786300E184C30C3000082
:1012EE000000060318C639862006088630C30000A3
:1012FE000000060318C630C6C006118330C30000B6
:10130E0000000603180E30C78003118330C10000A1
:10131E0000000603182630C78003218330C000006A
:10132E000000060318C630C6C001A18330C00000FD
:10133E0000000603188630C66001E18330C000004D
:10134E0000000603088630C67000C1C230C000001F
:10135E0000000E031CFF30C63800C0C41EE30000A0
:10136E0000000E071C6230C6380080380C83000067
:10137E0000000000000000000000800000000000DF
:10138E0000000000000000000001800000000000CE
:10139E000000000000000000000F00000000000030
:1013AE000000000000000000000E00000000000021
:1013BE00000000000000000000000000000000001F
:1013CE00000000000000000000000000000000000F
:1013DE0000000000000000000000000000000000FF
:1013EE0000000000000000000000000000000000EF
:1013FE0000000000000000000000000000000000DF
:102013000228A5E493A3F8E493A34003F68001F216
:1020230008DFF48029E493A3F85407240CC8C333CE
:10203300C4540F4420C8834004F456800146F6DF9D
:10204300E4800B0102040810204080902197E47E75
:10205300019360BCA3FF543F30E509541FFEE49392
:10206300A360010ECF54C025E060A840B8E493A359
:10207300FAE493A3F8E493A3C8C582C8CAC583CA84
:10208300F0A3C8C582C8CAC583CADFE9DEE780BE3C
:0122060000D7
:10190E00E709F608DFFA8046E709F208DFFA803EBB
:10191E0088828C83E709F0A3DFFA8032E309F608A8
:10192E00DFFA8078E309F208DFFA807088828C8310
:10193E00E309F0A3DFFA806489828A83E0A3F608C4
:10194E00DFFA805889828A83E0A3F208DFFA804C9E
:10195E0080D280FA80C680D4806980F28033801075
:10196E0080A680EA809A80A880DA80E280CA8033DE
:10197E0089828A83ECFAE493A3C8C582C8CCC58356
:10198E00CCF0A3C8C582C8CCC583CCDFE9DEE78026
:10199E000D89828A83E493A3F608DFF9ECFAA9F0A5
:1019AE00EDFB2289828A83ECFAE0A3C8C582C8CCFB
:1019BE00C583CCF0A3C8C582C8CCC583CCDFEADE14
:1019CE00E880DB89828A83E493A3F208DFF980CC76
:1019DE0088F0EF60010E4E60C388F0ED2402B4046F
:1019EE000050B9F582EB2402B4040050AF23234516
:0619FE00822390195E73C4
:101A0400BB010689828A83E0225002E722BBFE02E0
:091A1400E32289828A83E4932213
:101A1D00C2D5EC30E709B2D5E4C39DFDE49CFCEEE4
:101A2D0030E715B2D5E4C39FFFE49EFE121AD9C369
:101A3D00E49DFDE49CFC8003121AD930D507C3E464
:061A4D009FFFE49EFE2253
:101A5300E88FF0A4CC8BF0A42CFCE98EF0A42CFC32
:101A63008AF0EDA42CFCEA8EF0A4CDA8F08BF0A4B0
:101A73002DCC3825F0FDE98FF0A42CCD35F0FCEB0F
:101A83008EF0A4FEA9F0EB8FF0A4CFC5F02ECD39D4
:0F1A9300FEE43CFCEAA42DCE35F0FDE43CFC2241
:101AA200EB9FF5F0EA9E42F0E99D42F0E89C45F09A
:011AB2002211
:101AB300D083D082F8E4937012740193700DA3A3C2
:101AC30093F8740193F5828883E4737402936860D6
:061AD300EFA3A3A380DFD6
:10225A00AC25AD26AE27AF287810EC4D4E4F700452
:10226A007CA57DA5C3EC13FCED13FDEE13FEEF1365
:10227A00FF5010EC64CCFCED644CFDEE644EFEEFB6
:10228A0064CEFFD8DF8C258D268E278F28EE547FCB
:0D229A00FE228E258F2674A5F527F528223B
:101AD900BC000BBE0029EF8DF084FFADF022E4CCF1
:101AE900F875F008EF2FFFEE33FEEC33FCEE9DECBA
:101AF900984005FCEE9DFE0FD5F0E9E4CEFD22ED00
:101B0900F8F5F0EE8420D21CFEADF075F008EF2F49
:101B1900FFED33FD4007985006D5F0F222C398FD3A
:051B29000FD5F0EA22D7
:00000001FF
